{
  "contractName": "Locker",
  "abi": [
    {
      "anonymous": false,
      "inputs": [
        {
          "indexed": false,
          "internalType": "address",
          "name": "account",
          "type": "address"
        }
      ],
      "name": "Paused",
      "type": "event"
    },
    {
      "anonymous": false,
      "inputs": [
        {
          "indexed": true,
          "internalType": "bytes32",
          "name": "role",
          "type": "bytes32"
        },
        {
          "indexed": true,
          "internalType": "bytes32",
          "name": "previousAdminRole",
          "type": "bytes32"
        },
        {
          "indexed": true,
          "internalType": "bytes32",
          "name": "newAdminRole",
          "type": "bytes32"
        }
      ],
      "name": "RoleAdminChanged",
      "type": "event"
    },
    {
      "anonymous": false,
      "inputs": [
        {
          "indexed": true,
          "internalType": "bytes32",
          "name": "role",
          "type": "bytes32"
        },
        {
          "indexed": true,
          "internalType": "address",
          "name": "account",
          "type": "address"
        },
        {
          "indexed": true,
          "internalType": "address",
          "name": "sender",
          "type": "address"
        }
      ],
      "name": "RoleGranted",
      "type": "event"
    },
    {
      "anonymous": false,
      "inputs": [
        {
          "indexed": true,
          "internalType": "bytes32",
          "name": "role",
          "type": "bytes32"
        },
        {
          "indexed": true,
          "internalType": "address",
          "name": "account",
          "type": "address"
        },
        {
          "indexed": true,
          "internalType": "address",
          "name": "sender",
          "type": "address"
        }
      ],
      "name": "RoleRevoked",
      "type": "event"
    },
    {
      "anonymous": false,
      "inputs": [
        {
          "indexed": false,
          "internalType": "address",
          "name": "account",
          "type": "address"
        }
      ],
      "name": "Unpaused",
      "type": "event"
    },
    {
      "inputs": [],
      "name": "DEFAULT_ADMIN_ROLE",
      "outputs": [
        {
          "internalType": "bytes32",
          "name": "",
          "type": "bytes32"
        }
      ],
      "stateMutability": "view",
      "type": "function",
      "constant": true
    },
    {
      "inputs": [],
      "name": "FACILITATOR_ROLE",
      "outputs": [
        {
          "internalType": "bytes32",
          "name": "",
          "type": "bytes32"
        }
      ],
      "stateMutability": "view",
      "type": "function",
      "constant": true
    },
    {
      "inputs": [],
      "name": "FUNDS_CLERK_ROLE",
      "outputs": [
        {
          "internalType": "bytes32",
          "name": "",
          "type": "bytes32"
        }
      ],
      "stateMutability": "view",
      "type": "function",
      "constant": true
    },
    {
      "inputs": [],
      "name": "amountToLock",
      "outputs": [
        {
          "internalType": "uint256",
          "name": "",
          "type": "uint256"
        }
      ],
      "stateMutability": "view",
      "type": "function",
      "constant": true
    },
    {
      "inputs": [],
      "name": "daoTreasureAddress",
      "outputs": [
        {
          "internalType": "address payable",
          "name": "",
          "type": "address"
        }
      ],
      "stateMutability": "view",
      "type": "function",
      "constant": true
    },
    {
      "inputs": [
        {
          "internalType": "string",
          "name": "",
          "type": "string"
        },
        {
          "internalType": "uint256",
          "name": "",
          "type": "uint256"
        }
      ],
      "name": "eventAddresses",
      "outputs": [
        {
          "internalType": "address",
          "name": "",
          "type": "address"
        }
      ],
      "stateMutability": "view",
      "type": "function",
      "constant": true
    },
    {
      "inputs": [
        {
          "internalType": "string",
          "name": "",
          "type": "string"
        },
        {
          "internalType": "address",
          "name": "",
          "type": "address"
        }
      ],
      "name": "events",
      "outputs": [
        {
          "internalType": "enum Locker.LockedFundStatus",
          "name": "status",
          "type": "uint8"
        },
        {
          "internalType": "uint256",
          "name": "amount",
          "type": "uint256"
        }
      ],
      "stateMutability": "view",
      "type": "function",
      "constant": true
    },
    {
      "inputs": [
        {
          "internalType": "bytes32",
          "name": "role",
          "type": "bytes32"
        }
      ],
      "name": "getRoleAdmin",
      "outputs": [
        {
          "internalType": "bytes32",
          "name": "",
          "type": "bytes32"
        }
      ],
      "stateMutability": "view",
      "type": "function",
      "constant": true
    },
    {
      "inputs": [
        {
          "internalType": "bytes32",
          "name": "role",
          "type": "bytes32"
        },
        {
          "internalType": "address",
          "name": "account",
          "type": "address"
        }
      ],
      "name": "grantRole",
      "outputs": [],
      "stateMutability": "nonpayable",
      "type": "function"
    },
    {
      "inputs": [
        {
          "internalType": "bytes32",
          "name": "role",
          "type": "bytes32"
        },
        {
          "internalType": "address",
          "name": "account",
          "type": "address"
        }
      ],
      "name": "hasRole",
      "outputs": [
        {
          "internalType": "bool",
          "name": "",
          "type": "bool"
        }
      ],
      "stateMutability": "view",
      "type": "function",
      "constant": true
    },
    {
      "inputs": [],
      "name": "paused",
      "outputs": [
        {
          "internalType": "bool",
          "name": "",
          "type": "bool"
        }
      ],
      "stateMutability": "view",
      "type": "function",
      "constant": true
    },
    {
      "inputs": [
        {
          "internalType": "bytes32",
          "name": "role",
          "type": "bytes32"
        },
        {
          "internalType": "address",
          "name": "account",
          "type": "address"
        }
      ],
      "name": "renounceRole",
      "outputs": [],
      "stateMutability": "nonpayable",
      "type": "function"
    },
    {
      "inputs": [
        {
          "internalType": "bytes32",
          "name": "role",
          "type": "bytes32"
        },
        {
          "internalType": "address",
          "name": "account",
          "type": "address"
        }
      ],
      "name": "revokeRole",
      "outputs": [],
      "stateMutability": "nonpayable",
      "type": "function"
    },
    {
      "inputs": [
        {
          "internalType": "bytes4",
          "name": "interfaceId",
          "type": "bytes4"
        }
      ],
      "name": "supportsInterface",
      "outputs": [
        {
          "internalType": "bool",
          "name": "",
          "type": "bool"
        }
      ],
      "stateMutability": "view",
      "type": "function",
      "constant": true
    },
    {
      "inputs": [
        {
          "internalType": "address",
          "name": "admin",
          "type": "address"
        },
        {
          "internalType": "address payable",
          "name": "daoTreasure",
          "type": "address"
        }
      ],
      "name": "initialize",
      "outputs": [],
      "stateMutability": "nonpayable",
      "type": "function"
    },
    {
      "inputs": [
        {
          "internalType": "uint256",
          "name": "newAmountInWei",
          "type": "uint256"
        }
      ],
      "name": "setAmountToLock",
      "outputs": [],
      "stateMutability": "nonpayable",
      "type": "function"
    },
    {
      "inputs": [],
      "name": "getFacilitatorAddresses",
      "outputs": [
        {
          "internalType": "address[]",
          "name": "",
          "type": "address[]"
        }
      ],
      "stateMutability": "view",
      "type": "function",
      "constant": true
    },
    {
      "inputs": [
        {
          "internalType": "string",
          "name": "eventId",
          "type": "string"
        }
      ],
      "name": "lockFunds",
      "outputs": [],
      "stateMutability": "payable",
      "type": "function",
      "payable": true
    },
    {
      "inputs": [
        {
          "internalType": "string",
          "name": "eventId",
          "type": "string"
        }
      ],
      "name": "refund",
      "outputs": [],
      "stateMutability": "nonpayable",
      "type": "function"
    },
    {
      "inputs": [
        {
          "internalType": "string",
          "name": "eventId",
          "type": "string"
        },
        {
          "internalType": "address[]",
          "name": "addressesToRefund",
          "type": "address[]"
        }
      ],
      "name": "finalizeDeposit",
      "outputs": [],
      "stateMutability": "nonpayable",
      "type": "function"
    },
    {
      "inputs": [],
      "name": "withdrawSeizedFundsToDAOTreasure",
      "outputs": [],
      "stateMutability": "nonpayable",
      "type": "function"
    },
    {
      "inputs": [],
      "name": "pause",
      "outputs": [],
      "stateMutability": "nonpayable",
      "type": "function"
    },
    {
      "inputs": [],
      "name": "unpause",
      "outputs": [],
      "stateMutability": "nonpayable",
      "type": "function"
    },
    {
      "inputs": [
        {
          "internalType": "string",
          "name": "eventId",
          "type": "string"
        },
        {
          "internalType": "address",
          "name": "account",
          "type": "address"
        }
      ],
      "name": "overrideMakeRefundable",
      "outputs": [],
      "stateMutability": "nonpayable",
      "type": "function"
    },
    {
      "inputs": [
        {
          "internalType": "address payable",
          "name": "newDaoTreasureAddress",
          "type": "address"
        }
      ],
      "name": "setDaoTreasureAddress",
      "outputs": [],
      "stateMutability": "nonpayable",
      "type": "function"
    }
  ],
  "bytecode": "0x608060405234801561001057600080fd5b50613ee0806100206000396000f3fe6080604052600436106101665760003560e01c80638456cb59116100d1578063a60fb21b1161008a578063c39829d511610064578063c39829d5146104e1578063d547741f1461050c578063efb3bfa914610535578063fe5f2e881461057357610166565b8063a60fb21b14610462578063a7302b071461048d578063b37c0880146104b857610166565b80638456cb5914610364578063853de1851461037b57806391d14854146103b85780639c6f4e5d146103f5578063a217fddf14610420578063a4cb824a1461044b57610166565b806331e295761161012357806331e295761461027c57806336568abe146102a55780633f4ba83a146102ce578063485cc955146102e55780634f7584741461030e5780635c975abb1461033957610166565b806301ffc9a71461016b5780630f7f742a146101a8578063151802e9146101d1578063248a9ca3146101ed5780632a0f6b9d1461022a5780632f2ff15d14610253575b600080fd5b34801561017757600080fd5b50610192600480360381019061018d9190612b27565b61059c565b60405161019f9190612b6f565b60405180910390f35b3480156101b457600080fd5b506101cf60048036038101906101ca9190612c45565b610616565b005b6101eb60048036038101906101e69190612cc6565b610c95565b005b3480156101f957600080fd5b50610214600480360381019061020f9190612d49565b610fb6565b6040516102219190612d85565b60405180910390f35b34801561023657600080fd5b50610251600480360381019061024c9190612dfe565b610fd6565b005b34801561025f57600080fd5b5061027a60048036038101906102759190612e69565b6110df565b005b34801561028857600080fd5b506102a3600480360381019061029e9190612ea9565b611108565b005b3480156102b157600080fd5b506102cc60048036038101906102c79190612e69565b6112fb565b005b3480156102da57600080fd5b506102e361137e565b005b3480156102f157600080fd5b5061030c60048036038101906103079190612f09565b6113e5565b005b34801561031a57600080fd5b50610323611540565b6040516103309190612f58565b60405180910390f35b34801561034557600080fd5b5061034e611566565b60405161035b9190612b6f565b60405180910390f35b34801561037057600080fd5b5061037961157d565b005b34801561038757600080fd5b506103a2600480360381019061039d91906130ea565b6115e5565b6040516103af9190613155565b60405180910390f35b3480156103c457600080fd5b506103df60048036038101906103da9190612e69565b611649565b6040516103ec9190612b6f565b60405180910390f35b34801561040157600080fd5b5061040a6116b4565b604051610417919061317f565b60405180910390f35b34801561042c57600080fd5b506104356116ba565b6040516104429190612d85565b60405180910390f35b34801561045757600080fd5b506104606116c1565b005b34801561046e57600080fd5b50610477611b1d565b6040516104849190612d85565b60405180910390f35b34801561049957600080fd5b506104a2611b41565b6040516104af9190612d85565b60405180910390f35b3480156104c457600080fd5b506104df60048036038101906104da919061319a565b611b65565b005b3480156104ed57600080fd5b506104f6611b85565b6040516105039190613285565b60405180910390f35b34801561051857600080fd5b50610533600480360381019061052e9190612e69565b611b96565b005b34801561054157600080fd5b5061055c600480360381019061055791906132a7565b611bbf565b60405161056a92919061337a565b60405180910390f35b34801561057f57600080fd5b5061059a60048036038101906105959190612cc6565b611c13565b005b60007f7965db0b000000000000000000000000000000000000000000000000000000007bffffffffffffffffffffffffffffffffffffffffffffffffffffffff1916827bffffffffffffffffffffffffffffffffffffffffffffffffffffffff1916148061060f575061060e82611dfe565b5b9050919050565b61061e611566565b1561065e576040517f08c379a000000000000000000000000000000000000000000000000000000000815260040161065590613400565b60405180910390fd5b61066b6000801b33611649565b8061069c575061069b7f846f7827568b6c3241ebb30d6d2ab6d659ffbc624595d9b6f0ca8719db11d20e33611649565b5b6106db576040517f08c379a00000000000000000000000000000000000000000000000000000000081526004016106d29061346c565b60405180910390fd5b60008282905060d386866040516106f39291906134bc565b90815260200160405180910390208054905061070f9190613504565b905060008167ffffffffffffffff81111561072d5761072c612f89565b5b60405190808252806020026020018201604052801561075b5781602001602082028036833780820191505090505b50905060005b848490508110156108f157600060048111156107805761077f613303565b5b60d288886040516107929291906134bc565b908152602001604051809103902060008787858181106107b5576107b4613538565b5b90506020020160208101906107ca9190613567565b73ffffffffffffffffffffffffffffffffffffffff1673ffffffffffffffffffffffffffffffffffffffff16815260200190815260200160002060000160009054906101000a900460ff16600481111561082757610826613303565b5b14156108de57600160d288886040516108419291906134bc565b9081526020016040518091039020600087878581811061086457610863613538565b5b90506020020160208101906108799190613567565b73ffffffffffffffffffffffffffffffffffffffff1673ffffffffffffffffffffffffffffffffffffffff16815260200190815260200160002060000160006101000a81548160ff021916908360048111156108d8576108d7613303565b5b02179055505b80806108e990613594565b915050610761565b506000806000905060005b60d3898960405161090e9291906134bc565b908152602001604051809103902080549050811015610adb576000925060005b87879050811015610a085787878281811061094c5761094b613538565b5b90506020020160208101906109619190613567565b73ffffffffffffffffffffffffffffffffffffffff1660d38b8b6040516109899291906134bc565b908152602001604051809103902083815481106109a9576109a8613538565b5b9060005260206000200160009054906101000a900473ffffffffffffffffffffffffffffffffffffffff1673ffffffffffffffffffffffffffffffffffffffff1614156109f557600193505b8080610a0090613594565b91505061092e565b5082610ac85760d38989604051610a209291906134bc565b90815260200160405180910390208181548110610a4057610a3f613538565b5b9060005260206000200160009054906101000a900473ffffffffffffffffffffffffffffffffffffffff16848381518110610a7e57610a7d613538565b5b602002602001019073ffffffffffffffffffffffffffffffffffffffff16908173ffffffffffffffffffffffffffffffffffffffff1681525050600182610ac591906135dd565b91505b8080610ad390613594565b9150506108fc565b5060005b8351811015610c535760006004811115610afc57610afb613303565b5b60d28a8a604051610b0e9291906134bc565b90815260200160405180910390206000868481518110610b3157610b30613538565b5b602002602001015173ffffffffffffffffffffffffffffffffffffffff1673ffffffffffffffffffffffffffffffffffffffff16815260200190815260200160002060000160009054906101000a900460ff166004811115610b9657610b95613303565b5b1415610c4057600360d28a8a604051610bb09291906134bc565b90815260200160405180910390206000868481518110610bd357610bd2613538565b5b602002602001015173ffffffffffffffffffffffffffffffffffffffff1673ffffffffffffffffffffffffffffffffffffffff16815260200190815260200160002060000160006101000a81548160ff02191690836004811115610c3a57610c39613303565b5b02179055505b8080610c4b90613594565b915050610adf565b50600083511115610c8b57610c8960d060ce8a8a604051610c759291906134bc565b908152602001604051809103902054611e68565b505b5050505050505050565b610c9d611566565b15610cdd576040517f08c379a0000000000000000000000000000000000000000000000000000000008152600401610cd490613400565b60405180910390fd5b60cb543414610d21576040517f08c379a0000000000000000000000000000000000000000000000000000000008152600401610d189061367f565b60405180910390fd5b600060d28383604051610d359291906134bc565b908152602001604051809103902060003373ffffffffffffffffffffffffffffffffffffffff1673ffffffffffffffffffffffffffffffffffffffff1681526020019081526020016000206001015414610dc4576040517f08c379a0000000000000000000000000000000000000000000000000000000008152600401610dbb90613711565b60405180910390fd5b600060d38383604051610dd89291906134bc565b9081526020016040518091039020805490501415610e6f5760cd6000815480929190610e0390613594565b9190505560ce8383604051610e199291906134bc565b908152602001604051809103902081905550818160cf600060ce8686604051610e439291906134bc565b90815260200160405180910390205481526020019081526020016000209190610e6d929190612a18565b505b60d38282604051610e819291906134bc565b9081526020016040518091039020339080600181540180825580915050600190039060005260206000200160009091909190916101000a81548173ffffffffffffffffffffffffffffffffffffffff021916908373ffffffffffffffffffffffffffffffffffffffff160217905550604051806040016040528060006004811115610f0f57610f0e613303565b5b81526020013481525060d28383604051610f2a9291906134bc565b908152602001604051809103902060003373ffffffffffffffffffffffffffffffffffffffff1673ffffffffffffffffffffffffffffffffffffffff16815260200190815260200160002060008201518160000160006101000a81548160ff02191690836004811115610fa057610f9f613303565b5b0217905550602082015181600101559050505050565b600060656000838152602001908152602001600020600101549050919050565b610fde611566565b1561101e576040517f08c379a000000000000000000000000000000000000000000000000000000000815260040161101590613400565b60405180910390fd5b61102b6000801b33611649565b8061105c575061105b7f846f7827568b6c3241ebb30d6d2ab6d659ffbc624595d9b6f0ca8719db11d20e33611649565b5b61109b576040517f08c379a00000000000000000000000000000000000000000000000000000000081526004016110929061346c565b60405180910390fd5b8060cc60006101000a81548173ffffffffffffffffffffffffffffffffffffffff021916908373ffffffffffffffffffffffffffffffffffffffff16021790555050565b6110e882610fb6565b6110f9816110f4611e82565b611e8a565b6111038383611f27565b505050565b611110611566565b15611150576040517f08c379a000000000000000000000000000000000000000000000000000000000815260040161114790613400565b60405180910390fd5b6000801b61116581611160611e82565b611e8a565b600060d285856040516111799291906134bc565b908152602001604051809103902060008473ffffffffffffffffffffffffffffffffffffffff1673ffffffffffffffffffffffffffffffffffffffff1681526020019081526020016000209050600081600101541161120d576040517f08c379a00000000000000000000000000000000000000000000000000000000081526004016112049061377d565b60405180910390fd5b6002600481111561122157611220613303565b5b8160000160009054906101000a900460ff16600481111561124557611244613303565b5b14158015611288575060048081111561126157611260613303565b5b8160000160009054906101000a900460ff16600481111561128557611284613303565b5b14155b6112c7576040517f08c379a00000000000000000000000000000000000000000000000000000000081526004016112be9061380f565b60405180910390fd5b60018160000160006101000a81548160ff021916908360048111156112ef576112ee613303565b5b02179055505050505050565b611303611e82565b73ffffffffffffffffffffffffffffffffffffffff168173ffffffffffffffffffffffffffffffffffffffff1614611370576040517f08c379a0000000000000000000000000000000000000000000000000000000008152600401611367906138a1565b60405180910390fd5b61137a8282611fc6565b5050565b611386611566565b6113c5576040517f08c379a00000000000000000000000000000000000000000000000000000000081526004016113bc9061390d565b60405180910390fd5b6000801b6113da816113d5611e82565b611e8a565b6113e2612051565b50565b600060019054906101000a900460ff1661140d5760008054906101000a900460ff1615611416565b6114156120f3565b5b611455576040517f08c379a000000000000000000000000000000000000000000000000000000000815260040161144c9061399f565b60405180910390fd5b60008060019054906101000a900460ff1615905080156114a5576001600060016101000a81548160ff02191690831515021790555060016000806101000a81548160ff0219169083151502179055505b6114ad612104565b6114b5612155565b6114c26000801b84611f27565b6753444835ec58000060cb81905550600160cd819055508160cc60006101000a81548173ffffffffffffffffffffffffffffffffffffffff021916908373ffffffffffffffffffffffffffffffffffffffff160217905550801561153b5760008060016101000a81548160ff0219169083151502179055505b505050565b60cc60009054906101000a900473ffffffffffffffffffffffffffffffffffffffff1681565b6000609760009054906101000a900460ff16905090565b611585611566565b156115c5576040517f08c379a00000000000000000000000000000000000000000000000000000000081526004016115bc90613400565b60405180910390fd5b6000801b6115da816115d5611e82565b611e8a565b6115e26121ae565b50565b60d382805160208101820180518482526020830160208501208183528095505050505050818154811061161757600080fd5b906000526020600020016000915091509054906101000a900473ffffffffffffffffffffffffffffffffffffffff1681565b60006065600084815260200190815260200160002060000160008373ffffffffffffffffffffffffffffffffffffffff1673ffffffffffffffffffffffffffffffffffffffff16815260200190815260200160002060009054906101000a900460ff16905092915050565b60cb5481565b6000801b81565b6116c9611566565b15611709576040517f08c379a000000000000000000000000000000000000000000000000000000000815260040161170090613400565b60405180910390fd5b6117166000801b33611649565b8061174757506117467f846f7827568b6c3241ebb30d6d2ab6d659ffbc624595d9b6f0ca8719db11d20e33611649565b5b611786576040517f08c379a000000000000000000000000000000000000000000000000000000000815260040161177d9061346c565b60405180910390fd5b60005b600061179560d0612251565b1115611aa75760006117a960d06000612266565b9050600060d360cf60008481526020019081526020016000206040516117cf9190613ab4565b908152602001604051809103902080548060200260200160405190810160405280929190818152602001828054801561185d57602002820191906000526020600020905b8160009054906101000a900473ffffffffffffffffffffffffffffffffffffffff1673ffffffffffffffffffffffffffffffffffffffff1681526020019060010190808311611813575b5050505050905060005b8151811015611a93576003600481111561188457611883613303565b5b60d260cf60008681526020019081526020016000206040516118a69190613ab4565b908152602001604051809103902060008484815181106118c9576118c8613538565b5b602002602001015173ffffffffffffffffffffffffffffffffffffffff1673ffffffffffffffffffffffffffffffffffffffff16815260200190815260200160002060000160009054906101000a900460ff16600481111561192e5761192d613303565b5b1415611a805760d260cf60008581526020019081526020016000206040516119569190613ab4565b9081526020016040518091039020600083838151811061197957611978613538565b5b602002602001015173ffffffffffffffffffffffffffffffffffffffff1673ffffffffffffffffffffffffffffffffffffffff16815260200190815260200160002060010154846119ca91906135dd565b9350600460d260cf60008681526020019081526020016000206040516119f09190613ab4565b90815260200160405180910390206000848481518110611a1357611a12613538565b5b602002602001015173ffffffffffffffffffffffffffffffffffffffff1673ffffffffffffffffffffffffffffffffffffffff16815260200190815260200160002060000160006101000a81548160ff02191690836004811115611a7a57611a79613303565b5b02179055505b8080611a8b90613594565b915050611867565b50611a9f60d083612280565b505050611789565b6000811115611b1a5760cc60009054906101000a900473ffffffffffffffffffffffffffffffffffffffff1673ffffffffffffffffffffffffffffffffffffffff166108fc829081150290604051600060405180830381858888f19350505050158015611b18573d6000803e3d6000fd5b505b50565b7f846f7827568b6c3241ebb30d6d2ab6d659ffbc624595d9b6f0ca8719db11d20e81565b7f0424cf38c8834beebcaa33d45624a52f86494e75143c4aef2aafdb8bd68c732e81565b6000801b611b7a81611b75611e82565b611e8a565b8160cb819055505050565b6060611b9160c961229a565b905090565b611b9f82610fb6565b611bb081611bab611e82565b611e8a565b611bba8383611fc6565b505050565b60d282805160208101820180518482526020830160208501208183528095505050505050602052806000526040600020600091509150508060000160009054906101000a900460ff16908060010154905082565b611c1b611566565b15611c5b576040517f08c379a0000000000000000000000000000000000000000000000000000000008152600401611c5290613400565b60405180910390fd5b600060d28383604051611c6f9291906134bc565b908152602001604051809103902060003373ffffffffffffffffffffffffffffffffffffffff1673ffffffffffffffffffffffffffffffffffffffff168152602001908152602001600020905060003390506000826001015411611d08576040517f08c379a0000000000000000000000000000000000000000000000000000000008152600401611cff9061377d565b60405180910390fd5b60016004811115611d1c57611d1b613303565b5b8260000160009054906101000a900460ff166004811115611d4057611d3f613303565b5b14611d80576040517f08c379a0000000000000000000000000000000000000000000000000000000008152600401611d7790613b3d565b60405180910390fd5b60028260000160006101000a81548160ff02191690836004811115611da857611da7613303565b5b02179055508073ffffffffffffffffffffffffffffffffffffffff166108fc83600101549081150290604051600060405180830381858888f19350505050158015611df7573d6000803e3d6000fd5b5050505050565b60007f01ffc9a7000000000000000000000000000000000000000000000000000000007bffffffffffffffffffffffffffffffffffffffffffffffffffffffff1916827bffffffffffffffffffffffffffffffffffffffffffffffffffffffff1916149050919050565b6000611e7a836000018360001b6122bb565b905092915050565b600033905090565b611e948282611649565b611f2357611eb98173ffffffffffffffffffffffffffffffffffffffff16601461232b565b611ec78360001c602061232b565b604051602001611ed8929190613c64565b6040516020818303038152906040526040517f08c379a0000000000000000000000000000000000000000000000000000000008152600401611f1a9190613cd7565b60405180910390fd5b5050565b611f2f611566565b15611f6f576040517f08c379a0000000000000000000000000000000000000000000000000000000008152600401611f6690613400565b60405180910390fd5b611f798282612567565b7f0424cf38c8834beebcaa33d45624a52f86494e75143c4aef2aafdb8bd68c732e82148015611fb05750611fae60c982612648565b155b15611fc257611fc060c982612678565b505b5050565b611fce611566565b1561200e576040517f08c379a000000000000000000000000000000000000000000000000000000000815260040161200590613400565b60405180910390fd5b61201882826126a8565b7f0424cf38c8834beebcaa33d45624a52f86494e75143c4aef2aafdb8bd68c732e82141561204d5761204b60c98261278a565b505b5050565b612059611566565b612098576040517f08c379a000000000000000000000000000000000000000000000000000000000815260040161208f9061390d565b60405180910390fd5b6000609760006101000a81548160ff0219169083151502179055507f5db9ee0a495bf2e6ff9c91a7834c1ba4fdd244a5e8aa4e537bd38aeae4b073aa6120dc611e82565b6040516120e99190613155565b60405180910390a1565b60006120fe306127ba565b15905090565b600060019054906101000a900460ff16612153576040517f08c379a000000000000000000000000000000000000000000000000000000000815260040161214a90613d6b565b60405180910390fd5b565b600060019054906101000a900460ff166121a4576040517f08c379a000000000000000000000000000000000000000000000000000000000815260040161219b90613d6b565b60405180910390fd5b6121ac6127dd565b565b6121b6611566565b156121f6576040517f08c379a00000000000000000000000000000000000000000000000000000000081526004016121ed90613400565b60405180910390fd5b6001609760006101000a81548160ff0219169083151502179055507f62e78cea01bee320cd4e420270b5ea74000d11b0c9f74754ebdbfc544b05a25861223a611e82565b6040516122479190613155565b60405180910390a1565b600061225f82600001612849565b9050919050565b6000612275836000018361285a565b60001c905092915050565b6000612292836000018360001b612885565b905092915050565b606060006122aa83600001612999565b905060608190508092505050919050565b60006122c783836129f5565b612320578260000182908060018154018082558091505060019003906000526020600020016000909190919091505582600001805490508360010160008481526020019081526020016000208190555060019050612325565b600090505b92915050565b60606000600283600261233e9190613d8b565b61234891906135dd565b67ffffffffffffffff81111561236157612360612f89565b5b6040519080825280601f01601f1916602001820160405280156123935781602001600182028036833780820191505090505b5090507f3000000000000000000000000000000000000000000000000000000000000000816000815181106123cb576123ca613538565b5b60200101907effffffffffffffffffffffffffffffffffffffffffffffffffffffffffffff1916908160001a9053507f78000000000000000000000000000000000000000000000000000000000000008160018151811061242f5761242e613538565b5b60200101907effffffffffffffffffffffffffffffffffffffffffffffffffffffffffffff1916908160001a9053506000600184600261246f9190613d8b565b61247991906135dd565b90505b6001811115612519577f3031323334353637383961626364656600000000000000000000000000000000600f8616601081106124bb576124ba613538565b5b1a60f81b8282815181106124d2576124d1613538565b5b60200101907effffffffffffffffffffffffffffffffffffffffffffffffffffffffffffff1916908160001a905350600485901c94508061251290613de5565b905061247c565b506000841461255d576040517f08c379a000000000000000000000000000000000000000000000000000000000815260040161255490613e5b565b60405180910390fd5b8091505092915050565b6125718282611649565b6126445760016065600084815260200190815260200160002060000160008373ffffffffffffffffffffffffffffffffffffffff1673ffffffffffffffffffffffffffffffffffffffff16815260200190815260200160002060006101000a81548160ff0219169083151502179055506125e9611e82565b73ffffffffffffffffffffffffffffffffffffffff168173ffffffffffffffffffffffffffffffffffffffff16837f2f8788117e7eff1d82e926ec794901d17c78024a50270940304540a733656f0d60405160405180910390a45b5050565b6000612670836000018373ffffffffffffffffffffffffffffffffffffffff1660001b6129f5565b905092915050565b60006126a0836000018373ffffffffffffffffffffffffffffffffffffffff1660001b6122bb565b905092915050565b6126b28282611649565b156127865760006065600084815260200190815260200160002060000160008373ffffffffffffffffffffffffffffffffffffffff1673ffffffffffffffffffffffffffffffffffffffff16815260200190815260200160002060006101000a81548160ff02191690831515021790555061272b611e82565b73ffffffffffffffffffffffffffffffffffffffff168173ffffffffffffffffffffffffffffffffffffffff16837ff6391f5c32d9c69d2a47ea670b442974b53935d1edc7fd64eb21e047a839171b60405160405180910390a45b5050565b60006127b2836000018373ffffffffffffffffffffffffffffffffffffffff1660001b612885565b905092915050565b6000808273ffffffffffffffffffffffffffffffffffffffff163b119050919050565b600060019054906101000a900460ff1661282c576040517f08c379a000000000000000000000000000000000000000000000000000000000815260040161282390613d6b565b60405180910390fd5b6000609760006101000a81548160ff021916908315150217905550565b600081600001805490509050919050565b600082600001828154811061287257612871613538565b5b9060005260206000200154905092915050565b6000808360010160008481526020019081526020016000205490506000811461298d5760006001826128b79190613504565b90506000600186600001805490506128cf9190613504565b905081811461293e5760008660000182815481106128f0576128ef613538565b5b906000526020600020015490508087600001848154811061291457612913613538565b5b90600052602060002001819055508387600101600083815260200190815260200160002081905550505b8560000180548061295257612951613e7b565b5b600190038181906000526020600020016000905590558560010160008681526020019081526020016000206000905560019350505050612993565b60009150505b92915050565b6060816000018054806020026020016040519081016040528092919081815260200182805480156129e957602002820191906000526020600020905b8154815260200190600101908083116129d5575b50505050509050919050565b600080836001016000848152602001908152602001600020541415905092915050565b828054612a24906139ee565b90600052602060002090601f016020900481019282612a465760008555612a8d565b82601f10612a5f57803560ff1916838001178555612a8d565b82800160010185558215612a8d579182015b82811115612a8c578235825591602001919060010190612a71565b5b509050612a9a9190612a9e565b5090565b5b80821115612ab7576000816000905550600101612a9f565b5090565b6000604051905090565b600080fd5b600080fd5b60007fffffffff0000000000000000000000000000000000000000000000000000000082169050919050565b612b0481612acf565b8114612b0f57600080fd5b50565b600081359050612b2181612afb565b92915050565b600060208284031215612b3d57612b3c612ac5565b5b6000612b4b84828501612b12565b91505092915050565b60008115159050919050565b612b6981612b54565b82525050565b6000602082019050612b846000830184612b60565b92915050565b600080fd5b600080fd5b600080fd5b60008083601f840112612baf57612bae612b8a565b5b8235905067ffffffffffffffff811115612bcc57612bcb612b8f565b5b602083019150836001820283011115612be857612be7612b94565b5b9250929050565b60008083601f840112612c0557612c04612b8a565b5b8235905067ffffffffffffffff811115612c2257612c21612b8f565b5b602083019150836020820283011115612c3e57612c3d612b94565b5b9250929050565b60008060008060408587031215612c5f57612c5e612ac5565b5b600085013567ffffffffffffffff811115612c7d57612c7c612aca565b5b612c8987828801612b99565b9450945050602085013567ffffffffffffffff811115612cac57612cab612aca565b5b612cb887828801612bef565b925092505092959194509250565b60008060208385031215612cdd57612cdc612ac5565b5b600083013567ffffffffffffffff811115612cfb57612cfa612aca565b5b612d0785828601612b99565b92509250509250929050565b6000819050919050565b612d2681612d13565b8114612d3157600080fd5b50565b600081359050612d4381612d1d565b92915050565b600060208284031215612d5f57612d5e612ac5565b5b6000612d6d84828501612d34565b91505092915050565b612d7f81612d13565b82525050565b6000602082019050612d9a6000830184612d76565b92915050565b600073ffffffffffffffffffffffffffffffffffffffff82169050919050565b6000612dcb82612da0565b9050919050565b612ddb81612dc0565b8114612de657600080fd5b50565b600081359050612df881612dd2565b92915050565b600060208284031215612e1457612e13612ac5565b5b6000612e2284828501612de9565b91505092915050565b6000612e3682612da0565b9050919050565b612e4681612e2b565b8114612e5157600080fd5b50565b600081359050612e6381612e3d565b92915050565b60008060408385031215612e8057612e7f612ac5565b5b6000612e8e85828601612d34565b9250506020612e9f85828601612e54565b9150509250929050565b600080600060408486031215612ec257612ec1612ac5565b5b600084013567ffffffffffffffff811115612ee057612edf612aca565b5b612eec86828701612b99565b93509350506020612eff86828701612e54565b9150509250925092565b60008060408385031215612f2057612f1f612ac5565b5b6000612f2e85828601612e54565b9250506020612f3f85828601612de9565b9150509250929050565b612f5281612dc0565b82525050565b6000602082019050612f6d6000830184612f49565b92915050565b600080fd5b6000601f19601f8301169050919050565b7f4e487b7100000000000000000000000000000000000000000000000000000000600052604160045260246000fd5b612fc182612f78565b810181811067ffffffffffffffff82111715612fe057612fdf612f89565b5b80604052505050565b6000612ff3612abb565b9050612fff8282612fb8565b919050565b600067ffffffffffffffff82111561301f5761301e612f89565b5b61302882612f78565b9050602081019050919050565b82818337600083830152505050565b600061305761305284613004565b612fe9565b90508281526020810184848401111561307357613072612f73565b5b61307e848285613035565b509392505050565b600082601f83011261309b5761309a612b8a565b5b81356130ab848260208601613044565b91505092915050565b6000819050919050565b6130c7816130b4565b81146130d257600080fd5b50565b6000813590506130e4816130be565b92915050565b6000806040838503121561310157613100612ac5565b5b600083013567ffffffffffffffff81111561311f5761311e612aca565b5b61312b85828601613086565b925050602061313c858286016130d5565b9150509250929050565b61314f81612e2b565b82525050565b600060208201905061316a6000830184613146565b92915050565b613179816130b4565b82525050565b60006020820190506131946000830184613170565b92915050565b6000602082840312156131b0576131af612ac5565b5b60006131be848285016130d5565b91505092915050565b600081519050919050565b600082825260208201905092915050565b6000819050602082019050919050565b6131fc81612e2b565b82525050565b600061320e83836131f3565b60208301905092915050565b6000602082019050919050565b6000613232826131c7565b61323c81856131d2565b9350613247836131e3565b8060005b8381101561327857815161325f8882613202565b975061326a8361321a565b92505060018101905061324b565b5085935050505092915050565b6000602082019050818103600083015261329f8184613227565b905092915050565b600080604083850312156132be576132bd612ac5565b5b600083013567ffffffffffffffff8111156132dc576132db612aca565b5b6132e885828601613086565b92505060206132f985828601612e54565b9150509250929050565b7f4e487b7100000000000000000000000000000000000000000000000000000000600052602160045260246000fd5b6005811061334357613342613303565b5b50565b600081905061335482613332565b919050565b600061336482613346565b9050919050565b61337481613359565b82525050565b600060408201905061338f600083018561336b565b61339c6020830184613170565b9392505050565b600082825260208201905092915050565b7f5061757361626c653a2070617573656400000000000000000000000000000000600082015250565b60006133ea6010836133a3565b91506133f5826133b4565b602082019050919050565b60006020820190508181036000830152613419816133dd565b9050919050565b7f556e617574686f72697a65640000000000000000000000000000000000000000600082015250565b6000613456600c836133a3565b915061346182613420565b602082019050919050565b6000602082019050818103600083015261348581613449565b9050919050565b600081905092915050565b60006134a3838561348c565b93506134b0838584613035565b82840190509392505050565b60006134c9828486613497565b91508190509392505050565b7f4e487b7100000000000000000000000000000000000000000000000000000000600052601160045260246000fd5b600061350f826130b4565b915061351a836130b4565b92508282101561352d5761352c6134d5565b5b828203905092915050565b7f4e487b7100000000000000000000000000000000000000000000000000000000600052603260045260246000fd5b60006020828403121561357d5761357c612ac5565b5b600061358b84828501612e54565b91505092915050565b600061359f826130b4565b91507fffffffffffffffffffffffffffffffffffffffffffffffffffffffffffffffff8214156135d2576135d16134d5565b5b600182019050919050565b60006135e8826130b4565b91506135f3836130b4565b9250827fffffffffffffffffffffffffffffffffffffffffffffffffffffffffffffffff03821115613628576136276134d5565b5b828201905092915050565b7f496e76616c696420616d6f756e74000000000000000000000000000000000000600082015250565b6000613669600e836133a3565b915061367482613633565b602082019050919050565b600060208201905081810360008301526136988161365c565b9050919050565b7f416c7265616479206c6f636b65642066756e647320666f72207468697320657660008201527f656e740000000000000000000000000000000000000000000000000000000000602082015250565b60006136fb6023836133a3565b91506137068261369f565b604082019050919050565b6000602082019050818103600083015261372a816136ee565b9050919050565b7f4e6f206c6f636b65642066756e6420666f756e642e0000000000000000000000600082015250565b60006137676015836133a3565b915061377282613731565b602082019050919050565b600060208201905081810360008301526137968161375a565b9050919050565b7f46756e64732068617665206265656e207365697a6564206f7220726566756e6460008201527f656420616c72656164792e000000000000000000000000000000000000000000602082015250565b60006137f9602b836133a3565b91506138048261379d565b604082019050919050565b60006020820190508181036000830152613828816137ec565b9050919050565b7f416363657373436f6e74726f6c3a2063616e206f6e6c792072656e6f756e636560008201527f20726f6c657320666f722073656c660000000000000000000000000000000000602082015250565b600061388b602f836133a3565b91506138968261382f565b604082019050919050565b600060208201905081810360008301526138ba8161387e565b9050919050565b7f5061757361626c653a206e6f7420706175736564000000000000000000000000600082015250565b60006138f76014836133a3565b9150613902826138c1565b602082019050919050565b60006020820190508181036000830152613926816138ea565b9050919050565b7f496e697469616c697a61626c653a20636f6e747261637420697320616c72656160008201527f647920696e697469616c697a6564000000000000000000000000000000000000602082015250565b6000613989602e836133a3565b91506139948261392d565b604082019050919050565b600060208201905081810360008301526139b88161397c565b9050919050565b7f4e487b7100000000000000000000000000000000000000000000000000000000600052602260045260246000fd5b60006002820490506001821680613a0657607f821691505b60208210811415613a1a57613a196139bf565b5b50919050565b60008190508160005260206000209050919050565b60008154613a42816139ee565b613a4c818661348c565b94506001821660008114613a675760018114613a7857613aab565b60ff19831686528186019350613aab565b613a8185613a20565b60005b83811015613aa357815481890152600182019150602081019050613a84565b838801955050505b50505092915050565b6000613ac08284613a35565b915081905092915050565b7f46756e647320617265206e6f74206d61726b656420617320726566756e64616260008201527f6c65000000000000000000000000000000000000000000000000000000000000602082015250565b6000613b276022836133a3565b9150613b3282613acb565b604082019050919050565b60006020820190508181036000830152613b5681613b1a565b9050919050565b7f416363657373436f6e74726f6c3a206163636f756e7420000000000000000000600082015250565b6000613b9360178361348c565b9150613b9e82613b5d565b601782019050919050565b600081519050919050565b60005b83811015613bd2578082015181840152602081019050613bb7565b83811115613be1576000848401525b50505050565b6000613bf282613ba9565b613bfc818561348c565b9350613c0c818560208601613bb4565b80840191505092915050565b7f206973206d697373696e6720726f6c6520000000000000000000000000000000600082015250565b6000613c4e60118361348c565b9150613c5982613c18565b601182019050919050565b6000613c6f82613b86565b9150613c7b8285613be7565b9150613c8682613c41565b9150613c928284613be7565b91508190509392505050565b6000613ca982613ba9565b613cb381856133a3565b9350613cc3818560208601613bb4565b613ccc81612f78565b840191505092915050565b60006020820190508181036000830152613cf18184613c9e565b905092915050565b7f496e697469616c697a61626c653a20636f6e7472616374206973206e6f74206960008201527f6e697469616c697a696e67000000000000000000000000000000000000000000602082015250565b6000613d55602b836133a3565b9150613d6082613cf9565b604082019050919050565b60006020820190508181036000830152613d8481613d48565b9050919050565b6000613d96826130b4565b9150613da1836130b4565b9250817fffffffffffffffffffffffffffffffffffffffffffffffffffffffffffffffff0483118215151615613dda57613dd96134d5565b5b828202905092915050565b6000613df0826130b4565b91506000821415613e0457613e036134d5565b5b600182039050919050565b7f537472696e67733a20686578206c656e67746820696e73756666696369656e74600082015250565b6000613e456020836133a3565b9150613e5082613e0f565b602082019050919050565b60006020820190508181036000830152613e7481613e38565b9050919050565b7f4e487b7100000000000000000000000000000000000000000000000000000000600052603160045260246000fdfea264697066735822122043afedae0de2fdbaf4545beeab2a8af3d0c6ebf4025891e3f04f9a9624daa00164736f6c634300080c0033",
  "immutableReferences": {},
  "source": "// SPDX-License-Identifier: MIT\npragma solidity >=0.4.22 <0.9.0;\n\nimport \"@openzeppelin/contracts-upgradeable/access/AccessControlUpgradeable.sol\";\nimport \"@openzeppelin/contracts/utils/structs/EnumerableSet.sol\";\nimport \"@openzeppelin/contracts-upgradeable/security/PausableUpgradeable.sol\";\nimport \"@openzeppelin/contracts-upgradeable/proxy/utils/Initializable.sol\";\n\ncontract Locker is Initializable, AccessControlUpgradeable, PausableUpgradeable {\n  EnumerableSet.AddressSet private _facilitators;\n  uint public amountToLock;\n  address payable public daoTreasureAddress;\n  uint private nextEventIndex;\n  enum LockedFundStatus {\n    pending, \n    toBeRefunded,\n    refunded,\n    toBeSeized,\n    seized\n  }\n  struct LockedFund {\n    LockedFundStatus status;\n    uint amount;\n  }\n\n  mapping(string => uint256) internal eventIndexes;\n  mapping(uint256 => string) internal eventByIndex;\n  EnumerableSet.UintSet eventsToScanForSeizable;\n\n  // maps events to funds locked by individual addresses\n  mapping(string => mapping(address => LockedFund)) public events;\n  mapping(string => address[]) public eventAddresses;\n\n  function initialize (address admin, address payable daoTreasure) public initializer {\n    AccessControlUpgradeable.__AccessControl_init();\n    PausableUpgradeable.__Pausable_init();\n    _grantRole(DEFAULT_ADMIN_ROLE, admin);\n    amountToLock = 6000000000000000000;\n    nextEventIndex = 1;\n    daoTreasureAddress = daoTreasure;\n  }\n\n  function setAmountToLock (uint newAmountInWei) public onlyRole(DEFAULT_ADMIN_ROLE) {\n    amountToLock = newAmountInWei;\n  }\n\n  bytes32 public constant FACILITATOR_ROLE = keccak256(\"FACILITATOR_ROLE\");\n  bytes32 public constant FUNDS_CLERK_ROLE = keccak256(\"FUNDS_CLERK_ROLE\");\n\n  function getFacilitatorAddresses() public view returns(address[] memory) {\n    return EnumerableSet.values(_facilitators);\n  }\n\n  function _grantRole(bytes32 role, address account) internal override whenNotPaused {\n    super._grantRole(role, account);\n    if(role == FACILITATOR_ROLE && !EnumerableSet.contains(_facilitators, account)) {\n      EnumerableSet.add(_facilitators, account);\n    }\n  }\n\n  function _revokeRole(bytes32 role, address account) internal override whenNotPaused {\n    super._revokeRole(role, account);\n    if(role == FACILITATOR_ROLE) {\n        EnumerableSet.remove(_facilitators,account);\n    }\n  }\n\n  function lockFunds(string calldata eventId) public payable whenNotPaused {\n    require(msg.value == amountToLock, 'Invalid amount');\n    // Checks the same address did not already lock funds for the same event\n    require(events[eventId][msg.sender].amount == 0, 'Already locked funds for this event');\n    if(eventAddresses[eventId].length == 0) {\n      //Need to define a uint index for each event, and a way to get the eventId from its index, and vice versa\n      //This is because we want to use a enumerable set to keep track of the events that need \n      //to be seized (otherwise the contract would have to loop each time through all the events ever created)\n      //Enumerable sets have no handling of strings, but well of uint, hence the need to map our string event ids to uint's\n      eventIndexes[eventId] = nextEventIndex ++;\n      eventByIndex[eventIndexes[eventId]] = eventId;\n    }\n    eventAddresses[eventId].push(msg.sender);\n    events[eventId][msg.sender] = LockedFund(LockedFundStatus.pending, msg.value);\n  }\n\n  function refund(string calldata eventId) public whenNotPaused {\n    LockedFund storage lockedFund= events[eventId][msg.sender];\n    address payable target = payable(msg.sender);\n    require(lockedFund.amount > 0, 'No locked fund found.');\n    require(lockedFund.status == LockedFundStatus.toBeRefunded, 'Funds are not marked as refundable');\n    lockedFund.status = LockedFundStatus.refunded;\n    target.transfer(lockedFund.amount);\n  }\n\n  function finalizeDeposit(string calldata eventId, address[] calldata addressesToRefund) public whenNotPaused {\n    require(hasRole(DEFAULT_ADMIN_ROLE ,msg.sender) || hasRole(FUNDS_CLERK_ROLE, msg.sender), 'Unauthorized');\n    uint numberOfaddressesToSeize = uint(eventAddresses[eventId].length) - uint(addressesToRefund.length);\n    address[] memory addressesToSeize = new address[](numberOfaddressesToSeize);\n\n    for (uint i = 0; i < addressesToRefund.length; i++) {\n        if(events[eventId][addressesToRefund[i]].status == LockedFundStatus.pending){\n          events[eventId][addressesToRefund[i]].status = LockedFundStatus.toBeRefunded;\n        }\n    }\n\n    //automatically mark all other addresses as seizable\n    bool refunded;\n    uint currentToSeizeIndex = 0;\n    for (uint i = 0; i < eventAddresses[eventId].length; i ++) {\n        refunded = false;\n        for (uint j = 0; j < addressesToRefund.length; j ++) {\n          if(eventAddresses[eventId][i] == addressesToRefund[j]) {\n            refunded = true;\n          }\n        }\n        if(!refunded) {\n          addressesToSeize[currentToSeizeIndex] = eventAddresses[eventId][i];\n          currentToSeizeIndex = currentToSeizeIndex + 1;\n        }\n    }\n    for (uint i = 0; i < addressesToSeize.length; i++) {\n        if(events[eventId][addressesToSeize[i]].status == LockedFundStatus.pending){\n          events[eventId][addressesToSeize[i]].status = LockedFundStatus.toBeSeized;\n        }\n    }\n    if(addressesToSeize.length > 0) {\n      EnumerableSet.add(eventsToScanForSeizable, eventIndexes[eventId]);\n    }\n  }\n\n  function withdrawSeizedFundsToDAOTreasure() public whenNotPaused {\n    require(hasRole(DEFAULT_ADMIN_ROLE ,msg.sender) || hasRole(FUNDS_CLERK_ROLE, msg.sender), 'Unauthorized');\n    uint amountToSeize = 0;\n    while(EnumerableSet.length(eventsToScanForSeizable) > 0) {\n      uint currentEventIndex = EnumerableSet.at(eventsToScanForSeizable, 0);\n      address[] memory currentEventAddresses = eventAddresses[eventByIndex[currentEventIndex]];\n      for (uint j = 0; j < currentEventAddresses.length; j ++) {\n        if(events[eventByIndex[currentEventIndex]][currentEventAddresses[j]].status == LockedFundStatus.toBeSeized) {\n          amountToSeize += events[eventByIndex[currentEventIndex]][currentEventAddresses[j]].amount;\n          events[eventByIndex[currentEventIndex]][currentEventAddresses[j]].status = LockedFundStatus.seized;\n        }\n      }\n      EnumerableSet.remove(eventsToScanForSeizable, currentEventIndex);\n    }\n    if(amountToSeize > 0) {\n      daoTreasureAddress.transfer(amountToSeize);\n    }\n  }\n\n  function pause() public whenNotPaused onlyRole(DEFAULT_ADMIN_ROLE) {\n    _pause();\n  }\n\n  function unpause() public whenPaused onlyRole(DEFAULT_ADMIN_ROLE) {\n    _unpause();\n  }\n\n  //Safety method to allow the administrator to set a fund as refundable\n  function overrideMakeRefundable(string calldata eventId, address account) public whenNotPaused onlyRole(DEFAULT_ADMIN_ROLE) {\n    LockedFund storage lockedFund= events[eventId][account];\n    require(lockedFund.amount > 0, 'No locked fund found.');\n    require(lockedFund.status != LockedFundStatus.refunded && lockedFund.status != LockedFundStatus.seized, 'Funds have been seized or refunded already.');\n    lockedFund.status = LockedFundStatus.toBeRefunded;\n  }\n\n  function setDaoTreasureAddress(address payable newDaoTreasureAddress) public whenNotPaused {\n    require(hasRole(DEFAULT_ADMIN_ROLE ,msg.sender) || hasRole(FUNDS_CLERK_ROLE, msg.sender), 'Unauthorized');\n    daoTreasureAddress = newDaoTreasureAddress;\n  }\n}\n",
  "sourcePath": "/Users/bertrandlarsy/code/theweek/src/blockchain/contracts/Locker.sol",
  "compiler": {
    "name": "solc",
    "version": "0.8.12+commit.f00d7308.Emscripten.clang"
  },
  "schemaVersion": "3.4.6",
  "updatedAt": "2022-05-08T19:00:01.535Z",
  "networkType": "ethereum",
  "devdoc": {
    "kind": "dev",
    "methods": {
      "getRoleAdmin(bytes32)": {
        "details": "Returns the admin role that controls `role`. See {grantRole} and {revokeRole}. To change a role's admin, use {_setRoleAdmin}."
      },
      "grantRole(bytes32,address)": {
        "details": "Grants `role` to `account`. If `account` had not been already granted `role`, emits a {RoleGranted} event. Requirements: - the caller must have ``role``'s admin role."
      },
      "hasRole(bytes32,address)": {
        "details": "Returns `true` if `account` has been granted `role`."
      },
      "paused()": {
        "details": "Returns true if the contract is paused, and false otherwise."
      },
      "renounceRole(bytes32,address)": {
        "details": "Revokes `role` from the calling account. Roles are often managed via {grantRole} and {revokeRole}: this function's purpose is to provide a mechanism for accounts to lose their privileges if they are compromised (such as when a trusted device is misplaced). If the calling account had been revoked `role`, emits a {RoleRevoked} event. Requirements: - the caller must be `account`."
      },
      "revokeRole(bytes32,address)": {
        "details": "Revokes `role` from `account`. If `account` had been granted `role`, emits a {RoleRevoked} event. Requirements: - the caller must have ``role``'s admin role."
      },
      "supportsInterface(bytes4)": {
        "details": "See {IERC165-supportsInterface}."
      }
    },
    "version": 1
  },
  "userdoc": {
    "kind": "user",
    "methods": {},
    "version": 1
  }
}